:100000000C946D000C948A000C948A000C948A0065
:100010000C948A000C948A000C948A000C948A0038
:100020000C948A000C948A000C948A000C948A0028
:100030000C948A000C948A000C948A000C948A0018
:100040000C948A000C948A000C948A000C948A0008
:100050000C948A000C948A000C948A000C948A00F8
:100060000C948A000C948A00EB00F900E500FB0078
:10007000E700F900F900F500F900F900EF00F900D8
:10008000F900F900E300F900ED00F900F900F900CA
:10009000F900F300F900E900F900F900F900F900AE
:1000A000F900F900F900F900F900F900F900F90088
:1000B000F900F900F900F900F900F900F100BD01BB
:1000C000C901D501E101ED01F9010502230328036E
:1000D0006903C00315045604AD0411241FBECFEFFD
:1000E000D8E0DEBFCDBF11E0A0E0B1E0E4E8F7E189
:1000F00002C005900D92AC31B107D9F721E0ACE117
:10010000B1E001C01D92AE32B207E1F70E941A01C0
:100110000C94C00B0C9400000F931F93CF93DF93AC
:10012000CDB7DEB764970FB6F894DEBF0FBECDBF74
:100130005F934F933F932F939F938F937F936F93EF
:1001400086E091E09F938F938E010F5F1F4F1F9367
:100150000F930E94D608C8010E944B060FB6F89470
:10016000DEBF0FBECDBF64960FB6F894DEBF0FBEE4
:10017000CDBFDF91CF911F910F9108950E945A0634
:10018000882399F00E94600690E0C0979C01220F9E
:10019000331F880F991F880F991F880F991F820F8F
:1001A000931F9093200180931F0108950E94600681
:1001B00090E0FC01E354F109EB32F105D0F4EC5C82
:1001C000FF4F0C94AF0781E0089582E0089583E02B
:1001D000089584E0089585E0089586E0089588E014
:1001E000089589E008958AE008950E94BE0087E09E
:1001F00008958BE0089580E00895789484B58B622B
:1002000084BD80EF87BD0895389A399A3A9A559AF5
:100210004098419842985D980E94FD0085B515BCB4
:100220000895892B19F485B515BC089585B58460AA
:1002300085BD089541E061E080E895E20E940906ED
:100240000E9460010E9404010E940C0281E090E083
:100250000E9411012FEF82E597E0215080409040ED
:10026000E1F700C0000080E090E00E94110162E32D
:1002700070E088EC90E00E9497020E9496020E9433
:100280005A06882341F00E94D60080931E018830D0
:1002900010F40E94B3012FEF89EF90E021508040CD
:1002A0009040E1F700C00000E2CFE0EBF0E0808199
:1002B00083688083E1EBF0E080818460808308952F
:1002C000549A3D9A239A5C9845982B98579A209A6D
:1002D0005F9828980E94550182E390E09093200156
:1002E00080931F011092210108955F9A2898089524
:1002F0005F98289A08955F9828980895459A5C9881
:1003000020911F01309120014EE6429FC001439F82
:10031000900D11248093B300089545985C9A209124
:100320001F01309120014EE6429FC001439F900D76
:1003300011248093B30008951092B30045985C98FF
:10034000089581E080931D010E949C01089581E041
:1003500080931C010E949C01089510921D01089534
:1003600010921C01089590E08730910508F053C069
:10037000FC01E15AFF4F0C94AF0780911D018111E0
:100380004AC081E0809321010E947B010E947E018E
:10039000089580911D0181113EC082E0809321016A
:1003A0000E9475010E947E01089580911D018111B6
:1003B00032C083E0809321010E9478010E947E0177
:1003C000089580911C01811126C084E08093210151
:1003D0000E947B010E948D01089580911C01811172
:1003E0001AC085E0809321010E9475010E948D0151
:1003F000089580911C0181110EC086E08093210137
:100400000E9478010E948D010895109221010E949E
:100410007B010E949C0108958F92AF92BF92CF9270
:10042000EF92FF920F936894882481F80F2EF3E2E5
:10043000AF2EB12CF02D6894CC24C1F80F2EF4E22D
:10044000EF2EF12CF02D01E025E230E041E064E2F6
:1004500070E084E00E940E059093270180932601AE
:100460006894882482F80F2EF6E2AF2EB12CF02D7E
:100470006894CC24C2F80F2EF7E2EF2EF12CF02D69
:1004800003E028E230E043E067E270E084E00E94AD
:100490000E0590932901809328010F2EF6E08F2EF0
:1004A000F02D0F2EF9E2AF2EB12CF02D0F2EF6E02D
:1004B000CF2EF02D0F2EFAE2EF2EF12CF02D2BE2A5
:1004C00030E043E06AE270E084E00E940E05909321
:1004D0002501809324016894882482F80F2EF3E28A
:1004E000AF2EB12CF02D6894CC24C2F80F2EF4E27C
:1004F000EF2EF12CF02D05E025E230E045E064E23E
:1005000070E084E00E940E05909323018093220105
:1005100080E680937C0087E880937A000F91FF90BB
:10052000EF90CF90BF90AF908F90089508958F92E5
:100530009F92AF92BF92CF92DF92EF92FF920F9372
:100540001F93CF93DF938C01EB01809121018130C8
:1005500008F46CC0843018F08730A8F167C080912F
:100560002201909123010E94E50580912401909140
:1005700025010E94E505E0912401F09125016081AB
:100580007181828193810F2EFAE0CF2ED12CE12C44
:10059000F12CF02DA70196010E948D0749015A0107
:1005A000E0912201F0912301608171818281938128
:1005B000A70196010E948D07CA01B901A501940106
:1005C0000E948C0033C080912801909129010E94E3
:1005D000E50580912601909127010E94E505E091B3
:1005E0002601F091270160817181828193810F2E14
:1005F000FAE0CF2ED12CE12CF12CF02DA7019601A1
:100600000E948D0749015A01E0912801F0912901CA
:100610006081718182819381A70196010E948D077B
:10062000CA01B901A50194010E948C00E091210149
:100630008E2F90E08730910508F0E3C1FC01EA5964
:10064000FF4F0C94AF0780E090E00E941101D9C1E8
:10065000E0912201F09123014081518162817381F7
:10066000CE01DD0FAA0BBB0B84179507A607B707B2
:1006700068F4E0912401F0912501C080D180E280EE
:10068000F3808C159D05AE05BF0538F00E94A101D1
:1006900081E090E00E941101B4C1012E000C220BF8
:1006A000330B041715072607370728F40C151D050B
:1006B0002E053F0538F00E94AD0181E090E00E94D8
:1006C00011019FC10E94AD0180E090E00E941101E4
:1006D00098C1E0912201F0912301C080D180E28095
:1006E000F380CE010D2E000CAA0BBB0B8C159D05C3
:1006F000AE05BF05B8F4E0912401F09125014081D9
:10070000518162817381CE01DD230CF401969595B0
:100710008795092E000CAA0BBB0B84179507A6071B
:10072000B70738F00E94A10181E090E00E9411011A
:1007300068C1C801012E000CAA0BBB0B8C159D05CE
:10074000AE05BF0578F4C80199230CF40196959580
:100750008795092E000CAA0BBB0B84179507A607DB
:10076000B70738F00E94AD0181E090E00E941101CE
:1007700048C10E94AD0180E090E00E94110141C19A
:10078000E0912201F09123014081518162817381C6
:10079000CE01DD230CF4019695958795092E000C6A
:1007A000AA0BBB0B84179507A607B70788F4E0913F
:1007B0002401F0912501C080D180E280F380CE0138
:1007C000DD0FAA0BBB0B8C159D05AE05BF0538F0E0
:1007D0000E94A10181E090E00E94110112C1C801B4
:1007E00011230CF4019695958795092E000CAA0B00
:1007F000BB0B84179507A607B70748F4012E000C1A
:10080000220B330B0C151D052E053F0538F00E94F9
:10081000AD0181E090E00E941101F3C00E94AD01A2
:1008200080E090E00E941101ECC0E0912801F0917D
:1008300029014081518162817381CE01DD0FAA0BB4
:10084000BB0B84179507A607B70768F4E09126014C
:10085000F0912701C080D180E280F3808C159D0546
:10086000AE05BF0538F00E94A70181E090E00E942C
:100870001101C7C0012E000C220B330B0417150702
:100880002607370728F40C151D052E053F0538F0FF
:100890000E94B00181E090E00E941101B2C00E946C
:1008A000B00180E090E00E941101ABC0E09128010E
:1008B000F0912901C080D180E280F380CE010D2E1D
:1008C000000CAA0BBB0B8C159D05AE05BF05B8F43B
:1008D000E0912601F091270140815181628173816D
:1008E000CE01DD230CF4019695958795092E000C19
:1008F000AA0BBB0B84179507A607B70738F00E9411
:10090000A70181E090E00E9411017BC0C801012E87
:10091000000CAA0BBB0B8C159D05AE05BF0578F42A
:10092000C80199230CF4019695958795092E000C22
:10093000AA0BBB0B84179507A607B70738F00E94D0
:10094000B00181E090E00E9411015BC00E94B00103
:1009500080E090E00E94110154C0E0912801F091E4
:1009600029014081518162817381CE01DD230CF424
:10097000019695958795092E000CAA0BBB0B841741
:100980009507A607B70788F4E0912601F0912701A3
:10099000C080D180E280F380CE01DD0FAA0BBB0BBB
:1009A0008C159D05AE05BF0538F00E94A70181E0BA
:1009B00090E00E94110125C0C80111230CF401969A
:1009C00095958795092E000CAA0BBB0B84179507EC
:1009D000A607B70748F4012E000C220B330B0C15A9
:1009E0001D052E053F0538F00E94B00181E090E022
:1009F0000E94110106C00E94B00180E090E00E94B8
:100A00001101DF91CF911F910F91FF90EF90DF9037
:100A1000CF90BF90AF909F908F9008954F925F922C
:100A20006F927F928F92AF92BF92CF92DF92EF92AE
:100A3000FF920F931F93CF93DF93CDB7DEB7182F9D
:100A40002B01D42E390183E190E00E94B507FC010F
:100A5000D2014C9181E090E09C010D2C02C0220F4C
:100A6000331F0A94E2F7242B2C93D3014C919C0161
:100A7000002E02C0220F331F0A94E2F724232C9386
:100A8000D7012C910C2C02C0880F991F0A94E2F711
:100A9000809582238C93A0E8B0E08C911C92168301
:100AA00050864782D186738662860487F686E586FD
:100AB000C786B18AA08A828A158214821082118226
:100AC00012821382CF01DF91CF911F910F91FF907E
:100AD000EF90DF90CF90BF90AF908F907F906F900E
:100AE0005F904F900895DC011A96ED91FC911B9751
:100AF000408121E030E0C9011C960C9002C0880FB3
:100B0000991F0A94E2F7842B80830895DC011A96DA
:100B1000ED91FC911B97408121E030E0B9011C96DA
:100B20000C9002C0660F771F0A94E2F7CB01809504
:100B3000842380830895CF93DF93EC010E94860580
:100B40008AE08A95F1F700C0CE010E94730585E323
:100B50008A95F1F70000CE010E948605E889F9899F
:100B600021E030E00A8802C0220F331F0A94E2F726
:100B7000808190E082239323892BD1F3109285000A
:100B800010928400E1E8F0E0808183608083E8894E
:100B9000F98921E030E00A8802C0220F331F0A944D
:100BA000E2F7808190E082239323892BD1F7809113
:100BB0008400909185009D838C83E1E8F0E0808142
:100BC000887F8083DF91CF9108950F931F93CF93F8
:100BD000DF93EC010E949B056C817D8180E090E0B9
:100BE0000E94920622EB3DE94FE25FE30E94F80685
:100BF0000E9463068B01072E000C220B330B088327
:100C000019832A833B83CB01DF91CF911F910F91F1
:100C10000895CF93DF93D62FC42FA0E0B0E0880FC4
:100C2000991FAA1FBB1F880F991FAA1FBB1F9C01DA
:100C3000AD01220F331F441F551F220F331F441FC6
:100C4000551F60E074E284EF90E00E948D07215010
:100C500031093093C5002093C400E2ECF0E08081BC
:100C600086608083DD2329F0E1ECF0E08081806103
:100C70008083CC2329F0E1ECF0E0808188608083E0
:100C8000DF91CF910895E0ECF0E0908195FFFDCFEA
:100C90008093C6000895CF93DF93EC018881882369
:100CA00031F021960E94430689918111FBCFDF919B
:100CB000CF9108958091C000881F8827881F0895CC
:100CC0008091C60008950E94D70688F09F5798F03B
:100CD000B92F9927B751B0F0E1F0660F771F881F41
:100CE000991F1AF0BA95C9F714C0B13091F00E945B
:100CF000F106B1E008950C94F106672F782F88274C
:100D0000B85F39F0B93FCCF3869577956795B39581
:100D1000D9F73EF490958095709561957F4F8F4FF0
:100D20009F4F0895E89409C097FB3EF490958095F5
:100D3000709561957F4F8F4F9F4F9923A9F0F92FA1
:100D400096E9BB279395F695879577956795B7951F
:100D5000F111F8CFFAF4BB0F11F460FF1BC06F5F05
:100D60007F4F8F4F9F4F16C0882311F096E911C017
:100D7000772321F09EE8872F762F05C0662371F038
:100D800096E8862F70E060E02AF09A95660F771F4C
:100D9000881FDAF7880F9695879597F9089557FD7C
:100DA0009058440F551F59F05F3F71F04795880FD9
:100DB00097FB991F61F09F3F79F087950895121670
:100DC00013061406551FF2CF4695F1DF08C016161C
:100DD00017061806991FF1CF8695710561050894CD
:100DE0000895E894BB2766277727CB0197F90895E4
:100DF0000E940B070C947C070E946E0738F00E943B
:100E0000750720F0952311F00C9465070C946B077F
:100E100011240C94F2060E94CF0670F3959FC1F343
:100E2000950F50E0551F629FF001729FBB27F00D98
:100E3000B11D639FAA27F00DB11DAA1F649F6627ED
:100E4000B00DA11D661F829F2227B00DA11D621F3C
:100E5000739FB00DA11D621F839FA00D611D221FF6
:100E6000749F3327A00D611D231F849F600D211DDA
:100E7000822F762F6A2F11249F5750409AF0F1F05D
:100E800088234AF0EE0FFF1FBB1F661F771F881FC6
:100E900091505040A9F79E3F510580F00C94650792
:100EA0000C94F2065F3FE4F3983ED4F38695779571
:100EB0006795B795F795E7959F5FC1F7FE2B880F6C
:100EC000911D9695879597F9089597F99F6780E802
:100ED00070E060E008959FEF80EC089500240A948C
:100EE0001616170618060906089500240A94121605
:100EF0001306140605060895092E0394000C11F438
:100F0000882352F0BB0F40F4BF2B11F460FF04C0E4
:100F10006F5F7F4F8F4F9F4F0895A1E21A2EAA1B3C
:100F2000BB1BFD010DC0AA1FBB1FEE1FFF1FA21799
:100F3000B307E407F50720F0A21BB30BE40BF50B96
:100F4000661F771F881F991F1A9469F7609570951F
:100F5000809590959B01AC01BD01CF010895EE0FE6
:100F6000FF1F0590F491E02D09940F931F93CF93E9
:100F7000DF938230910510F482E090E0E0912C0143
:100F8000F0912D0120E030E0A0E0B0E0309719F1C1
:100F9000408151810281138148175907C8F0841795
:100FA000950769F4109731F012960C9312971396E7
:100FB0001C9327C000932C0110932D0122C02115F2
:100FC000310519F04217530718F49A01BD01EF01DA
:100FD000DF01F801DBCF21153105F9F0281B390BB2
:100FE0002430310580F48A819B816115710521F0DF
:100FF000FB019383828304C090932D0180932C0185
:10100000FE01329644C0FE01E20FF31F81939193DB
:1010100022503109398328833AC020912A01309126
:101020002B01232B41F420910201309103013093D5
:101030002B0120932A0120910001309101012115FB
:10104000310541F42DB73EB740910401509105019F
:10105000241B350BE0912A01F0912B01E217F307D5
:10106000A0F42E1B3F0B2817390778F0AC014E5F18
:101070005F4F2417350748F04E0F5F1F50932B0129
:1010800040932A018193919302C0E0E0F0E0CF0108
:10109000DF91CF911F910F910895CF93DF93009728
:1010A00009F481C0FC01329713821282A0912C01B5
:1010B000B0912D01109781F420813181820F931F0F
:1010C00020912A0130912B012817390751F5F0930F
:1010D0002B01E0932A0167C0ED0120E030E0CE173C
:1010E000DF0740F44A815B819E0141155105F1F013
:1010F000EA01F5CFD383C28340815181840F951FCC
:10110000C817D90759F488819981840F951F0296D1
:10111000918380838A819B8193838283211531050A
:1011200029F4F0932D01E0932C013DC0E901FB83EC
:10113000EA8349915991C40FD51FEC17FD0761F45B
:1011400080819181840F951F0296E901998388839C
:10115000828193819B838A83E0E0F0E012968D91F7
:101160009C911397009719F0FD01DC01F7CF8D9149
:101170009C9111979D012E5F3F4F820F931F2091ED
:101180002A0130912B012817390769F4309729F487
:1011900010922D0110922C0102C013821282B09382
:1011A0002B01A0932A01DF91CF910895AEE0B0E02A
:1011B000ECEDF8E00C94970B0D891E8986E08C838A
:1011C0001A8309838FEF9FE79E838D83AE01475E6D
:1011D0005F4F6F89788DCE0101960E94F808EF81EC
:1011E000F885E00FF11F10822E96E4E00C94B30B0B
:1011F000ABE0B0E0EEEFF8E00C94890B6C017B0102
:101200008A01FC0117821682838181FFCCC1CE0145
:1012100001963C01F6019381F70193FD859193FFBF
:1012200081917F01882309F4BAC1853239F493FD95
:10123000859193FF81917F01853229F4B60190E079
:101240000E94EF0AE7CF912C212C312CFFE1F315FE
:10125000D8F08B3279F038F4803279F08332A1F40F
:10126000232D20611DC08D3261F0803369F4232D60
:10127000216016C0832D8260382EE32DE4603E2E5F
:101280002AC0F32DF8601DC037FC2DC020ED280FBB
:101290002A3040F08E32B9F436FC81C1232D20640F
:1012A000322E19C036FE06C08AE0989E200D112409
:1012B000922E11C0EAE02E9E200D1124222EF32D35
:1012C000F0623F2E08C08C3621F4832D8068382EC2
:1012D00002C0883641F4F70193FD859193FF819117
:1012E0007F018111B3CF982F9F7D9554933028F4BF
:1012F0000C5F1F4F9FE399830DC0833631F0833716
:1013000071F0833509F059C021C0F80180818983CB
:101310000E5F1F4F88248394912C530113C0280122
:10132000F2E04F0E511CF801A080B18036FE03C0E0
:10133000692D70E002C06FEF7FEFC5010E94E40AE3
:101340004C018201F32DFF773F2E16C0280122E0C9
:10135000420E511CF801A080B18036FE03C0692DF9
:1013600070E002C06FEF7FEFC5010E94D90A4C0107
:10137000F32DF0683F2E820133FC1BC0822D90E0DC
:1013800088169906B0F4B60180E290E00E94EF0A58
:101390002A94F4CFF50137FC859137FE81915F01E6
:1013A000B60190E00E94EF0A21102A9421E0821AEF
:1013B00091088114910471F7E8C0843611F08936E0
:1013C00041F5F80137FE07C0608171818281938108
:1013D0000C5F1F4F08C060817181072E000C880BC5
:1013E000990B0E5F1F4FF32DFF763F2E97FF09C01D
:1013F00090958095709561957F4F8F4F9F4FF068C6
:101400003F2E2AE030E0A3010E942B0B882E861885
:1014100045C0853731F4232D2F7EB22E2AE030E0EF
:1014200025C0932D997FB92E8F36C1F018F48835D9
:1014300079F0B5C0803719F0883721F0B0C0E92FB6
:10144000E061BE2EB4FE0DC0FB2DF460BF2E09C0BE
:1014500034FE0AC0292F2660B22E06C028E030E0F4
:1014600005C020E130E002C020E132E0F801B7FE23
:1014700007C060817181828193810C5F1F4F06C01C
:101480006081718180E090E00E5F1F4FA3010E9498
:101490002B0B882E8618FB2DFF773F2E36FE0DC0B6
:1014A000232D2E7FA22E891458F434FE0BC032FC5B
:1014B00009C0832D8E7EA82E05C0B82CA32C03C096
:1014C000B82C01C0B92CA4FE0FC0FE01E80DF11D1F
:1014D0008081803321F49A2D997EA92E09C0A2FE25
:1014E00006C0B394B39404C08A2D867809F0B394EF
:1014F000A3FC11C0A0FE06C0B21488F4280C922CE4
:101500009B180EC0B21460F4B60180E290E00E9415
:10151000EF0AB394F7CFB21418F42B1802C0982C2A
:10152000212CA4FE10C0B60180E390E00E94EF0AD7
:10153000A2FE17C0A1FC03C088E790E002C088E5C6
:1015400090E0B6010CC08A2D867859F0A1FE02C049
:101550008BE201C080E2A7FC8DE2B60190E00E9420
:10156000EF0A891438F4B60180E390E00E94EF0A94
:101570009A94F7CF8A94F301E80DF11D8081B601AA
:1015800090E00E94EF0A8110F5CF222009F442CEAC
:10159000B60180E290E00E94EF0A2A94F6CFF601AD
:1015A0008681978102C08FEF9FEF2B96E2E10C942A
:1015B000A50BFC010590615070400110D8F7809593
:1015C00090958E0F9F1F0895FC016150704001900F
:1015D0000110D8F7809590958E0F9F1F08950F9357
:1015E0001F93CF93DF93FB01238121FD03C08FEF76
:1015F0009FEF2CC022FF16C0468157812481358180
:101600004217530744F4A081B1819D012F5F3F4FE2
:10161000318320838C93268137812F5F3F4F37831F
:10162000268314C08B01EC01FB010084F185E02DC1
:101630000995892BE1F6D80116968D919C91179703
:10164000019617969C938E931697CE01DF91CF91BA
:101650001F910F910895FA01AA27283051F12031E6
:1016600081F1E8946F936E7F6E5F7F4F8F4F9F4F36
:10167000AF4FB1E03ED0B4E03CD0670F781F891F78
:101680009A1FA11D680F791F8A1F911DA11D6A0F46
:10169000711D811D911DA11D20D009F468943F91F9
:1016A0002AE0269F11243019305D3193DEF6CF01F8
:1016B0000895462F4770405D4193B3E00FD0C9F7BE
:1016C000F6CF462F4F70405D4A3318F0495D31FD2B
:1016D0004052419302D0A9F7EACFB4E0A69597957E
:1016E000879577956795BA95C9F700976105710554
:1016F00008959B01AC010A2E06945795479537959E
:101700002795BA95C9F7620F731F841F951FA01DF7
:1017100008952F923F924F925F926F927F928F9295
:101720009F92AF92BF92CF92DF92EF92FF920F9370
:101730001F93CF93DF93CDB7DEB7CA1BDB0B0FB67A
:10174000F894DEBF0FBECDBF09942A883988488837
:101750005F846E847D848C849B84AA84B984C884CD
:10176000DF80EE80FD800C811B81AA81B981CE0FC4
:10177000D11D0FB6F894DEBF0FBECDBFED010895A9
:04178000F894FFCF0B
:1017840000002E012000444C3A256C7520636D2026
:0C179400523A256C750A005425750A00B5
:00000001FF
