S00E0000426F624361722E73726563ED
S11300000C9466000C9483000C9483000C9483007D
S11300100C9483000C9483000C9483000C94830050
S11300200C9483000C9483000C9483000C94830040
S11300300C9483000C9483000C9483000C94830030
S11300400C9483000C9483000C9483000C94830020
S11300500C9483000C9483000C9483000C94830010
S11300600C9483000C9483009A00A6009400A800CA
S11300709600A600A6009E00A600A600A000A6006A
S1130080A600A6009200A6009C00A600A600A6005A
S1130090A600A400A6009800A600A600A600A6003C
S11300A0A600A600A600A600A600A600A600A6001C
S11300B0A600A600A600A600A600A600A200510164
S11300C056015B01600165016A016F0111241FBEC5
S11300D0CFEFD8E0DEBFCDBF11E0A0E0B1E0E8E4AF
S11300E0FAE002C005900D92A830B107D9F721E0DB
S11300F0A8E0B1E001C01D92AC30B207E1F70E9464
S1130100C0000C9422050C9400000E94AC0290E004
S1130110FC01E354F109EB32F105C0F4EC5CFF4F50
S11301200C94FB0381E0089582E0089583E0089530
S113013084E0089585E0089586E0089587E00895B1
S113014088E0089589E008958AE008958BE0089591
S113015080E0089584B5836284BD85B5886085BDDB
S113016080E487BD0895389A399A3A9A559A409806
S1130170419842985D980E94AA0085B515BC0895DF
S113018041E061E080E895E20E946C026894882472
S113019081F80F2EF3E2AF2EB12CF02D6894CC240D
S11301A0C1F80F2EF4E2EF2EF12CF02D01E025E240
S11301B030E041E064E270E084E00E947401EC010C
S11301C00E940F010E94B3002FEF84E39CE02150B2
S11301D080409040E1F700C00000CE010E94480238
S11301E00E94A602882331F00E948500883010F412
S11301F00E9448012FEF84E39CE02150804090400E
S1130200E1F700C00000E9CFE0EBF0E08081836813
S11302108083E1EBF0E08081846080830895549AC8
S11302203D9A239A5C9845982B98579A209A5F9800
S113023028980E94040108955F9A289808955F9869
S1130240289A08955F9828980895459A5C98209173
S11302500601309107014EE6429FC001439F900D75
S113026011248093B300089545985C9A2091060167
S1130270309107014EE6429FC001439F900D112427
S11302808093B30008951092B30045985C98089544
S113029090E08730910538F5FC01E15AFF4F0C944A
S11302A0FB030E9422010E94250108950E941C0163
S11302B00E94250108950E941F010E9425010895AE
S11302C00E9422010E94340108950E941C010E9490
S11302D0340108950E941F010E94340108950E9470
S11302E022010E94430108954F925F926F927F9280
S11302F08F92AF92BF92CF92DF92EF92FF920F93C1
S11303001F93CF93DF93CDB7DEB7182F2B01D42ED5
S1130310390183E190E00E940104FC01D2014C9177
S113032081E090E09C010D2C02C0220F331F0A943F
S1130330E2F7242B2C93D3014C919C01002E02C094
S1130340220F331F0A94E2F724232C93D7012C9114
S11303500C2C02C0880F991F0A94E2F7809582231F
S11303608C93A0E8B0E08C911C921683508647824F
S1130370D186738662860487F686E586C786B18A47
S1130380A08A828A158214821082118212821382B8
S1130390CF01DF91CF911F910F91FF90EF90DF90EC
S11303A0CF90BF90AF908F907F906F905F904F9061
S11303B00895DC011A96ED91FC911B97408121E090
S11303C030E0C9011C960C9002C0880F991F0A9452
S11303D0E2F7842B80830895DC011A96ED91FC9159
S11303E01B97408121E030E0B9011C960C9002C0BB
S11303F0660F771F0A94E2F7CB01809584238083EC
S11304000895CF93DF93EC010E94EC0100C0CE016C
S11304100E94D90183E08A95F1F70000CE010E9481
S1130420EC01E889F98921E030E00A8802C0220F52
S1130430331F0A94E2F7808190E082239323892B6F
S1130440D1F31092850010928400E1E8F0E08081FD
S113045083608083E889F98921E030E00A8802C05A
S1130460220F331F0A94E2F7808190E082239323C2
S1130470892BD1F780918400909185009D838C8392
S1130480E1E8F0E08081887F8083DF91CF91089557
S11304900F931F93CF93DF93EC010E9401026C81B1
S11304A07D8180E090E00E94DE0222EB3DE94FE294
S11304B05FE30E9444030E94AF028B01072E000CED
S11304C0220B330B088319832A833B83CB01DF91EF
S11304D0CF911F910F910895CF93DF93D62FC42FFF
S11304E0A0E0B0E0880F991FAA1FBB1F880F991FB7
S11304F0AA1FBB1F9C01AD01220F331F441F551FB0
S1130500220F331F441F551F60E074E284EF90E014
S11305100E94D903215031093093C5002093C400AF
S1130520E2ECF0E0808186608083DD2329F0E1EC59
S1130530F0E0808180618083CC2329F0E1ECF0E05D
S1130540808188608083DF91CF9108958091C0007D
S1130550881F8827881F08958091C60008950E94E7
S1130560230388F09F5798F0B92F9927B751B0F01B
S1130570E1F0660F771F881F991F1AF0BA95C9F723
S113058014C0B13091F00E943D03B1E008950C9481
S11305903D03672F782F8827B85F39F0B93FCCF334
S11305A0869577956795B395D9F73EF490958095A0
S11305B0709561957F4F8F4F9F4F0895E89409C0C0
S11305C097FB3EF490958095709561957F4F8F4F82
S11305D09F4F9923A9F0F92F96E9BB279395F69598
S11305E0879577956795B795F111F8CFFAF4BB0F16
S11305F011F460FF1BC06F5F7F4F8F4F9F4F16C07A
S1130600882311F096E911C0772321F09EE8872F03
S1130610762F05C0662371F096E8862F70E060E0BF
S11306202AF09A95660F771F881FDAF7880F969538
S1130630879597F9089557FD9058440F551F59F021
S11306405F3F71F04795880F97FB991F61F09F3FBB
S113065079F087950895121613061406551FF2CFE4
S11306604695F1DF08C0161617061806991FF1CF34
S113067086957105610508940895E894BB2766275B
S11306807727CB0197F908950E9457030C94C80368
S11306900E94BA0338F00E94C10320F0952311F0A0
S11306A00C94B1030C94B70311240C943E030E94E0
S11306B01B0370F3959FC1F3950F50E0551F629F84
S11306C0F001729FBB27F00DB11D639FAA27F00DA7
S11306D0B11DAA1F649F6627B00DA11D661F829FCE
S11306E02227B00DA11D621F739FB00DA11D621FB3
S11306F0839FA00D611D221F749F3327A00D611DD0
S1130700231F849F600D211D822F762F6A2F1124B1
S11307109F5750409AF0F1F088234AF0EE0FFF1FE4
S1130720BB1F661F771F881F91505040A9F79E3F3B
S1130730510580F00C94B1030C943E035F3FE4F345
S1130740983ED4F3869577956795B795F795E79591
S11307509F5FC1F7FE2B880F911D9695879597F99A
S1130760089597F99F6780E870E060E008959FEF2F
S113077080EC089500240A94161617061806090634
S1130780089500240A941216130614060506089503
S1130790092E0394000C11F4882352F0BB0F40F48B
S11307A0BF2B11F460FF04C06F5F7F4F8F4F9F4FCB
S11307B00895A1E21A2EAA1BBB1BFD010DC0AA1F9E
S11307C0BB1FEE1FFF1FA217B307E407F50720F0B6
S11307D0A21BB30BE40BF50B661F771F881F991F31
S11307E01A9469F760957095809590959B01AC017A
S11307F0BD01CF010895EE0FFF1F0590F491E02D88
S113080009940F931F93CF93DF938230910510F4D3
S113081082E090E0E0910A01F0910B0120E030E0E9
S1130820A0E0B0E0309719F1408151810281138139
S113083048175907C8F08417950769F4109731F0E1
S113084012960C93129713961C9327C000930A01D7
S113085010930B0122C02115310519F042175307DB
S113086018F49A01BD01EF01DF01F801DBCF211576
S11308703105F9F0281B390B2430310580F48A81C5
S11308809B816115710521F0FB019383828304C070
S113089090930B0180930A01FE01329644C0FE013D
S11308A0E20FF31F819391932250310939832883F6
S11308B03AC02091080130910901232B41F4209181
S11308C00201309103013093090120930801209122
S11308D00001309101012115310541F42DB73EB7D6
S11308E04091040150910501241B350BE09108014E
S11308F0F0910901E217F307A0F42E1B3F0B281710
S1130900390778F0AC014E5F5F4F2417350748F084
S11309104E0F5F1F509309014093080181939193F7
S113092002C0E0E0F0E0CF01DF91CF911F910F9181
S11309300895CF93DF93009709F481C0FC013297A7
S113094013821282A0910A01B0910B01109781F4D5
S113095020813181820F931F209108013091090178
S11309602817390751F5F0930901E093080167C08E
S1130970ED0120E030E0CE17DF0740F44A815B81CF
S11309809E0141155105F1F0EA01F5CFD383C283ED
S113099040815181840F951FC817D90759F4888164
S11309A09981840F951F0296918380838A819B810C
S11309B0938382832115310529F4F0930B01E0938D
S11309C00A013DC0E901FB83EA8349915991C40FAF
S11309D0D51FEC17FD0761F480819181840F951F69
S11309E00296E90199838883828193819B838A8318
S11309F0E0E0F0E012968D919C911397009719F026
S1130A00FD01DC01F7CF8D919C9111979D012E5F23
S1130A103F4F820F931F209108013091090128173D
S1130A20390769F4309729F410920B0110920A01E6
S1130A3002C013821282B0930901A0930801DF91CE
S10B0A40CF910895F894FFCF53
S10B0A4800000C012000550020
S9030000FC
