:100000000C9466000C9483000C9483000C94830081
:100010000C9483000C9483000C9483000C94830054
:100020000C9483000C9483000C9483000C94830044
:100030000C9483000C9483000C9483000C94830034
:100040000C9483000C9483000C9483000C94830024
:100050000C9483000C9483000C9483000C94830014
:100060000C9483000C9483009A00A6009400A800CE
:100070009600A600A6009E00A600A600A000A6006E
:10008000A600A6009200A6009C00A600A600A6005E
:10009000A600A400A6009800A600A600A600A60040
:1000A000A600A600A600A600A600A600A600A60020
:1000B000A600A600A600A600A600A600A2002F018A
:1000C000340139013E01430148014D0111241FBE95
:1000D000CFEFD8E0DEBFCDBF11E0A0E0B1E0EEE7AA
:1000E000F3E002C005900D92A230B107D9F721E0EC
:1000F000A2E0B1E001C01D92A230B207E1F70E9478
:10010000C9000C94BD010C9400000E94920190E083
:10011000FC01E354F109EB32F105C0F4EC5CFF4F54
:100120000C94B70181E0089582E0089583E008957A
:1001300084E0089585E0089586E0089587E00895B5
:1001400088E0089589E008958AE008958BE0089595
:1001500080E0089584B5836284BD85B5886085BDDF
:1001600080E487BD0895389A399A3A9A559A40980A
:10017000419842985D980E94AA0085B515BC0895E3
:10018000892B19F485B515BC089585B5846085BDA6
:10019000089541E061E080E895E20E9452010E94EA
:1001A000ED000E94B30081E090E00E94C0000E9438
:1001B0008C018823E1F30E9485008830C0F70E94FB
:1001C0002601F5CFE0EBF0E0808183688083E1EBEE
:1001D000F0E08081846080830895549A3D9A239A48
:1001E0005C9845982B98579A209A5F9828980E9477
:1001F000E20008955F9A289808955F98289A0895D4
:100200005F9828980895459A5C9820910001309154
:1002100001014EE6429FC001439F900D112480933F
:10022000B300089545985C9A209100013091010136
:100230004EE6429FC001439F900D11248093B3006E
:1002400008951092B30045985C98089590E0873027
:10025000910538F5FC01E15AFF4F0C94B7010E945B
:1002600000010E94030108950E94FA000E94030108
:1002700008950E94FD000E94030108950E9400015C
:100280000E94120108950E94FA000E94120108952E
:100290000E94FD000E94120108950E9400010E9428
:1002A00021010895CF93DF93D62FC42FA0E0B0E0B3
:1002B000880F991FAA1FBB1F880F991FAA1FBB1F5A
:1002C0009C01AD01220F331F441F551F220F331F06
:1002D000441F551F60E074E284EF90E00E94950196
:1002E000215031093093C5002093C400E2ECF0E0C6
:1002F000808186608083DD2329F0E1ECF0E080815D
:1003000080618083CC2329F0E1ECF0E0808188607B
:100310008083DF91CF9108958091C000881F882746
:10032000881F08958091C6000895A1E21A2EAA1B85
:10033000BB1BFD010DC0AA1FBB1FEE1FFF1FA21795
:10034000B307E407F50720F0A21BB30BE40BF50B92
:10035000661F771F881F991F1A9469F7609570951B
:10036000809590959B01AC01BD01CF010895EE0FE2
:0E037000FF1F0590F491E02D0994F894FFCF43
:02037E00550028
:00000001FF
