S00E0000426F624361722E73726563ED
S11300000C9466000C947B000C947B000C947B0095
S11300100C947B000C947B000C947B000C947B0070
S11300200C947B000C947B000C947B000C947B0060
S11300300C947B000C947B000C947B000C947B0050
S11300400C947B000C947B000C947B000C947B0040
S11300500C947B000C947B000C947B000C947B0030
S11300600C947B000C947B0092009E008C00A000FA
S11300708E009E009E0096009E009E0098009E00AA
S11300809E009E008A009E0094009E009E009E009A
S11300909E009C009E0090009E009E009E009E007C
S11300A09E009E009E009E009E009E009E009E005C
S11300B09E009E009E009E009E009E009A000501E8
S11300C00A010F01140119011E01230111241FBE8D
S11300D0CFEFD8E0DEBFCDBF11E0A0E0B1E0EAE2AF
S11300E0F3E002C005900D92A230B107D9F70E9447
S11300F0A2000C9493010C9400000E94680190E00B
S1130100FC01E354F109EB32F105C0F4EC5CFF4F60
S11301100C948D0181E0089582E0089583E00895B0
S113012084E0089585E0089586E0089587E00895C1
S113013088E0089589E008958AE008958BE00895A1
S113014080E008958FEF87B918B841E061E080E856
S113015095E20E9428010E94C3000E946201882344
S1130160E1F30E947D008830C0F70E94FC00F5CFC7
S1130170E0EBF0E0808183688083E1EBF0E0808154
S1130180846080830895549A3D9A239A5C98459894
S11301902B98579A209A5F9828980E94B80008953F
S11301A05F9A289808955F98289A08955F982898E8
S11301B00895459A5C9820910001309101014EE622
S11301C0429FC001439F900D11248093B300089572
S11301D045985C9A20910001309101014EE6429FBE
S11301E0C001439F900D11248093B3000895109291
S11301F0B30045985C98089590E08730910538F5F0
S1130200FC01E15AFF4F0C948D010E94D6000E941C
S1130210D90008950E94D0000E94D90008950E9438
S1130220D3000E94D90008950E94D6000E94E800DD
S113023008950E94D0000E94E80008950E94D3000F
S11302400E94E80008950E94D6000E94F7000895D5
S1130250CF93DF93D62FC42FA0E0B0E0880F991F6F
S1130260AA1FBB1F880F991FAA1FBB1F9C01AD01AA
S1130270220F331F441F551F220F331F441F551FC6
S113028060E074E284EF90E00E946B012150310938
S11302903093C5002093C400E2ECF0E080818660D6
S11302A08083DD2329F0E1ECF0E0808180618083AC
S11302B0CC2329F0E1ECF0E0808188608083DF9139
S11302C0CF9108958091C000881F8827881F0895C2
S11302D08091C6000895A1E21A2EAA1BBB1BFD0142
S11302E00DC0AA1FBB1FEE1FFF1FA217B307E40711
S11302F0F50720F0A21BB30BE40BF50B661F771F69
S1130300881F991F1A9469F7609570958095909548
S11303109B01AC01BD01CF010895EE0FFF1F0590B5
S10D0320F491E02D0994F894FFCF46
S105032A550078
S9030000FC
