:100000000C9466000C9483000C9483000C94830081
:100010000C9483000C9483000C9483000C94830054
:100020000C9483000C9483000C9483000C94830044
:100030000C9483000C9483000C9483000C94830034
:100040000C9483000C9483000C9483000C94830024
:100050000C9483000C9483000C9483000C94830014
:100060000C9483000C948300E800F400E200F60096
:10007000E400F400F400EC00F400F400EE00F400FE
:10008000F400F400E000F400EA00F400F400F400EE
:10009000F400F200F400E600F400F400F400F400D0
:1000A000F400F400F400F400F400F400F400F400B0
:1000B000F400F400F400F400F400F400F000B201E5
:1000C000B701BC01C101C601CB01D00111241FBE83
:1000D000CFEFD8E0DEBFCDBF11E0A0E0B1E0E2EAB3
:1000E000FDE002C005900D92A231B107D9F721E0E1
:1000F000A2E1B1E001C01D92A631B207E1F70E9472
:10010000F8000C94CF060C9400000F931F93CF932C
:10011000DF9300D000D0CDB7DEB79F938F9388E0F8
:1001200091E09F938F938E010F5F1F4F1F930F934B
:100130000E94E503C8010E9484020F900F900F9067
:100140000F900F900F900F900F900F900F90DF91E6
:10015000CF911F910F9108950F931F93CF93DF932A
:1001600000D000D0CDB7DEB79F938F938DE091E0A4
:100170009F938F938E010F5F1F4F1F930F930E94CA
:10018000E503C8010E9484020F900F900F900F901A
:100190000F900F900F900F900F900F90DF91CF91D5
:1001A0001F910F9108950E94990290E0FC01E35481
:1001B000F109EB32F105C0F4EC5CFF4F0C94BE0288
:1001C00081E0089582E0089583E0089584E0089531
:1001D00085E0089586E0089587E0089588E0089511
:1001E00089E008958AE008958BE0089580E00895FD
:1001F00041E061E080E895E20E9442026894882430
:1002000082F80F2EF3E2AF2EB12CF02D6894CC249F
:10021000C2F80F2EF4E2EF2EF12CF02D05E025E2CE
:1002200030E045E064E270E084E00E94D501EC013A
:100230000E9470018BE790E00E94AC002FED83E9F3
:1002400094E0215080409040E1F700C0000081E040
:1002500090E00E94AC002FED83E994E021508040B3
:100260009040E1F700C00000CE010E9432022FED65
:1002700083E994E0215080409040E1F700C0000005
:10028000888199810E9485002FED83E994E02150B7
:1002900080409040E1F700C000008A819B810E946D
:1002A000AC000E949302882331F00E94D300883072
:1002B00010F40E94A9012FEF80E792E021508040C6
:1002C0009040E1F700C00000CFCFE0EBF0E080818C
:1002D00083688083E1EBF0E080818460808308950F
:1002E000549A3D9A239A5C9845982B98579A209A4D
:1002F0005F9828980E94650108955F9A289808954C
:100300005F98289A08955F9828980895459A5C9870
:1003100020910601309107014EE6429FC001439FA4
:10032000900D11248093B300089545985C9A209114
:100330000601309107014EE6429FC001439F900D98
:1003400011248093B30008951092B30045985C98EF
:10035000089590E08730910538F5FC01E15AFF4F90
:100360000C94BE020E9483010E94860108950E949F
:100370007D010E94860108950E9480010E948601ED
:1003800008950E9483010E94950108950E947D01B5
:100390000E94950108950E9480010E949501089590
:1003A0000E9483010E94A40108958F92CF92FF9230
:1003B0000F931F93CF93DF93CDB7DEB7F82E142F93
:1003C00081E190E00E94C402FC01219A29982298C0
:1003D000A0E8B0E08C911C92F48284B190E0968306
:1003E0008583178385B190E091878087028784B1E8
:1003F00090E094878387C58685E090E0978786871D
:10040000808A1382128211821082CF01DF91CF91F4
:100410001F910F91FF90CF908F900895DC01299844
:1004200000C0299A83E08A95F1F7000029981A9B69
:10043000FECF1092850010928400E1E8F0E09081F8
:1004400092609083B09A1A99FECFE1E8F0E0808143
:100450001082809184009091850013969C938E93D6
:1004600012970895CF93DF93EC010E940E029A81B8
:1004700081E0983C08F480E090E099838883DF91E4
:10048000CF910895CF93DF93D62FC42FA0E0B0E093
:10049000880F991FAA1FBB1F880F991FAA1FBB1F78
:1004A0009C01AD01220F331F441F551F220F331F24
:1004B000441F551F60E074E284EF90E00E949C02AC
:1004C000215031093093C5002093C400E2ECF0E0E4
:1004D000808186608083DD2329F0E1ECF0E080817B
:1004E00080618083CC2329F0E1ECF0E0808188609A
:1004F0008083DF91CF910895E0ECF0E0908195FF4B
:10050000FDCF8093C6000895CF93DF93EC018881DF
:10051000882331F021960E947C0289918111FBCFC2
:10052000DF91CF9108958091C000881F8827881F90
:1005300008958091C6000895A1E21A2EAA1BBB1B44
:10054000FD010DC0AA1FBB1FEE1FFF1FA217B3079F
:10055000E407F50720F0A21BB30BE40BF50B661FB5
:10056000771F881F991F1A9469F760957095809579
:1005700090959B01AC01BD01CF010895EE0FFF1FC7
:100580000590F491E02D09940F931F93CF93DF937F
:100590008230910510F482E090E0E0911401F09136
:1005A000150120E030E0A0E0B0E0309719F1408183
:1005B00051810281138148175907C8F084179507A4
:1005C00069F4109731F012960C93129713961C93BE
:1005D00027C0009314011093150122C02115310585
:1005E00019F04217530718F49A01BD01EF01DF011A
:1005F000F801DBCF21153105F9F0281B390B243028
:10060000310580F48A819B816115710521F0FB0120
:100610009383828304C09093150180931401FE019B
:10062000329644C0FE01E20FF31F81939193225052
:100630003109398328833AC0209112013091130186
:10064000232B41F4209102013091030130931301D7
:1006500020931201209100013091010121153105F3
:1006600041F42DB73EB74091040150910501241B80
:10067000350BE0911201F0911301E217F307A0F49A
:100680002E1B3F0B2817390778F0AC014E5F5F4FE8
:100690002417350748F04E0F5F1F50931301409306
:1006A00012018193919302C0E0E0F0E0CF01DF916D
:1006B000CF911F910F910895CF93DF93009709F485
:1006C00081C0FC01329713821282A0911401B09173
:1006D0001501109781F420813181820F931F2091A1
:1006E0001201309113012817390751F5F0931301C6
:1006F000E093120167C0ED0120E030E0CE17DF0784
:1007000040F44A815B819E0141155105F1F0EA01F7
:10071000F5CFD383C28340815181840F951FC817C1
:10072000D90759F488819981840F951F0296918386
:1007300080838A819B81938382832115310529F4EB
:10074000F0931501E09314013DC0E901FB83EA83B6
:1007500049915991C40FD51FEC17FD0761F48081B1
:100760009181840F951F0296E90199838883828184
:1007700093819B838A83E0E0F0E012968D919C91B7
:100780001397009719F0FD01DC01F7CF8D919C9133
:1007900011979D012E5F3F4F820F931F20911201F1
:1007A000309113012817390769F4309729F4109212
:1007B00015011092140102C013821282B09313012A
:1007C000A0931201DF91CF910895AEE0B0E0EBEE7F
:1007D000F3E00C94A6060D891E8986E08C831A83AB
:1007E00009838FEF9FE79E838D83AE01475E5F4F46
:1007F0006F89788DCE0101960E940704EF81F885FC
:10080000E00FF11F10822E96E4E00C94C206ABE0DC
:10081000B0E0EDE0F4E00C9498066C017B018A01F5
:10082000FC0117821682838181FFCCC1CE01019623
:100830003C01F6019381F70193FD859193FF81912E
:100840007F01882309F4BAC1853239F493FD85917B
:1008500093FF81917F01853229F4B60190E00E94D7
:10086000FE05E7CF912C212C312CFFE1F315D8F0B8
:100870008B3279F038F4803279F08332A1F4232D71
:1008800020611DC08D3261F0803369F4232D216019
:1008900016C0832D8260382EE32DE4603E2E2AC0E0
:1008A000F32DF8601DC037FC2DC020ED280F2A3035
:1008B00040F08E32B9F436FC81C1232D2064322EF3
:1008C00019C036FE06C08AE0989E200D1124922E93
:1008D00011C0EAE02E9E200D1124222EF32DF0628D
:1008E0003F2E08C08C3621F4832D8068382E02C03C
:1008F000883641F4F70193FD859193FF81917F0143
:100900008111B3CF982F9F7D9554933028F40C5FBD
:100910001F4F9FE399830DC0833631F0833771F009
:10092000833509F059C021C0F801808189830E5FA9
:100930001F4F88248394912C530113C02801F2E0A7
:100940004F0E511CF801A080B18036FE03C0692D06
:1009500070E002C06FEF7FEFC5010E94F3054C010C
:100960008201F32DFF773F2E16C0280122E0420EB0
:10097000511CF801A080B18036FE03C0692D70E0E3
:1009800002C06FEF7FEFC5010E94E8054C01F32D17
:10099000F0683F2E820133FC1BC0822D90E0881648
:1009A0009906B0F4B60180E290E00E94FE052A9418
:1009B000F4CFF50137FC859137FE81915F01B601D7
:1009C00090E00E94FE0521102A9421E0821A9108ED
:1009D0008114910471F7E8C0843611F0893641F52D
:1009E000F80137FE07C060817181828193810C5FBD
:1009F0001F4F08C060817181072E000C880B990B76
:100A00000E5F1F4FF32DFF763F2E97FF09C0909585
:100A10008095709561957F4F8F4F9F4FF0683F2E67
:100A20002AE030E0A3010E943A06882E861845C0CD
:100A3000853731F4232D2F7EB22E2AE030E025C0F9
:100A4000932D997FB92E8F36C1F018F4883579F03F
:100A5000B5C0803719F0883721F0B0C0E92FE061C8
:100A6000BE2EB4FE0DC0FB2DF460BF2E09C034FEB7
:100A70000AC0292F2660B22E06C028E030E005C04B
:100A800020E130E002C020E132E0F801B7FE07C00B
:100A900060817181828193810C5F1F4F06C06081EC
:100AA000718180E090E00E5F1F4FA3010E943A0623
:100AB000882E8618FB2DFF773F2E36FE0DC0232D86
:100AC0002E7FA22E891458F434FE0BC032FC09C0CC
:100AD000832D8E7EA82E05C0B82CA32C03C0B82C65
:100AE00001C0B92CA4FE0FC0FE01E80DF11D8081EC
:100AF000803321F49A2D997EA92E09C0A2FE06C04A
:100B0000B394B39404C08A2D867809F0B394A3FCFF
:100B100011C0A0FE06C0B21488F4280C922C9B18B9
:100B20000EC0B21460F4B60180E290E00E94FE05AF
:100B3000B394F7CFB21418F42B1802C0982C212CC0
:100B4000A4FE10C0B60180E390E00E94FE05A2FE64
:100B500017C0A1FC03C088E790E002C088E590E0E0
:100B6000B6010CC08A2D867859F0A1FE02C08BE236
:100B700001C080E2A7FC8DE2B60190E00E94FE0574
:100B8000891438F4B60180E390E00E94FE059A943F
:100B9000F7CF8A94F301E80DF11D8081B60190E052
:100BA0000E94FE058110F5CF222009F442CEB60145
:100BB00080E290E00E94FE052A94F6CFF60186813D
:100BC000978102C08FEF9FEF2B96E2E10C94B40661
:100BD000FC010590615070400110D8F78095909508
:100BE0008E0F9F1F0895FC0161507040019001100D
:100BF000D8F7809590958E0F9F1F08950F931F93A0
:100C0000CF93DF93FB01238121FD03C08FEF9FEF83
:100C10002CC022FF16C0468157812481358142179E
:100C2000530744F4A081B1819D012F5F3F4F318371
:100C300020838C93268137812F5F3F4F3783268314
:100C400014C08B01EC01FB010084F185E02D0995B6
:100C5000892BE1F6D80116968D919C9117970196F4
:100C600017969C938E931697CE01DF91CF911F918B
:100C70000F910895FA01AA27283051F1203181F10E
:100C8000E8946F936E7F6E5F7F4F8F4F9F4FAF4F94
:100C9000B1E03ED0B4E03CD0670F781F891F9A1FA7
:100CA000A11D680F791F8A1F911DA11D6A0F711D5B
:100CB000811D911DA11D20D009F468943F912AE067
:100CC000269F11243019305D3193DEF6CF0108954F
:100CD000462F4770405D4193B3E00FD0C9F7F6CF80
:100CE000462F4F70405D4A3318F0495D31FD405248
:100CF000419302D0A9F7EACFB4E0A69597958795DE
:100D000077956795BA95C9F70097610571050895BC
:100D10009B01AC010A2E0694579547953795279568
:100D2000BA95C9F7620F731F841F951FA01D089500
:100D30002F923F924F925F926F927F928F929F92EB
:100D4000AF92BF92CF92DF92EF92FF920F931F93D9
:100D5000CF93DF93CDB7DEB7CA1BDB0B0FB6F8948A
:100D6000DEBF0FBECDBF09942A88398848885F84CA
:100D70006E847D848C849B84AA84B984C884DF803B
:100D8000EE80FD800C811B81AA81B981CE0FD11D1F
:100D90000FB6F894DEBF0FBECDBFED010895F894F5
:020DA000FFCF83
:100DA20000001601200055004425640A0054256401
:020DB2000A0035
:00000001FF
