:100000000C9466000C9483000C9483000C94830081
:100010000C9483000C9483000C9483000C94830054
:100020000C9483000C9483000C9483000C94830044
:100030000C9483000C9483000C9483000C94830034
:100040000C9483000C9483000C9483000C94830024
:100050000C9483000C9483000C9483000C94830014
:100060000C9483000C948300C800D400C200D60016
:10007000C400D400D400CC00D400D400CE00D400FE
:10008000D400D400C000D400CA00D400D400D400EE
:10009000D400D200D400C600D400D400D400D400D0
:1000A000D400D400D400D400D400D400D400D400B0
:1000B000D400D400D400D400D400D400D000B101C6
:1000C000B601BB01C001C501CA01CF0111241FBE89
:1000D000CFEFD8E0DEBFCDBF11E0A0E0B1E0E0E1BE
:1000E000F1E102C005900D92A431B107D9F721E0EA
:1000F000A4E1B1E001C01D92A831B207E1F70E946E
:10010000F7000C9486080C9400000F931F93CF9374
:10011000DF93CDB7DEB72F970FB6F894DEBF0FBED3
:10012000CDBF9F938F937F936F9388E091E09F93D0
:100130008F938E010F5F1F4F1F930F930E949C059B
:10014000C8010E9411030FB6F894DEBF0FBECDBFE9
:100150002F960FB6F894DEBF0FBECDBFDF91CF91C3
:100160001F910F9108950E94260390E0FC01E35433
:10017000F109EB32F105C0F4EC5CFF4F0C9475040F
:1001800081E0089582E0089583E0089584E0089571
:1001900085E0089586E0089587E0089588E0089551
:1001A00089E008958AE008958BE0089580E008953D
:1001B00084B5836284BD85B5886085BD80E487BDD4
:1001C0000895389A399A3A9A559A4098419842989F
:1001D0005D980E94D80085B515BC0895892B19F447
:1001E00085B515BC089585B5846085BD089541E049
:1001F00061E080E895E20E94CF026894882481F84B
:100200000F2EF3E2AF2EB12CF02D6894CC24C1F860
:100210000F2EF4E2EF2EF12CF02D01E025E230E07C
:1002200041E064E270E084E00E94D401EC010E94AD
:100230006F010E94E10081E090E00E94EE002FEF4C
:1002400084E39CE0215080409040E1F700C0000032
:100250000F2EFAE0CF2ED12CE12CF12CF02DCE0177
:100260000E94AB02688179818A819B81A7019601F6
:100270000E945304CA01B9010E94850088819981B6
:10028000AA81BB8186399105A105B10528F481E0D9
:1002900090E00E94EE0004C080E090E00E94EE003A
:1002A0000E942003882331F00E94B300883010F4AC
:1002B0000E94A8012FEF80E792E0215080409040FB
:1002C000E1F700C00000CBCFE0EBF0E08081836875
:1002D0008083E1EBF0E08081846080830895549A0C
:1002E0003D9A239A5C9845982B98579A209A5F9844
:1002F00028980E94640108955F9A289808955F984D
:10030000289A08955F9828980895459A5C982091B6
:100310000601309107014EE6429FC001439F900DB8
:1003200011248093B300089545985C9A20910601AA
:10033000309107014EE6429FC001439F900D11246A
:100340008093B30008951092B30045985C98089587
:1003500090E08730910538F5FC01E15AFF4F0C948D
:1003600075040E9482010E94850108950E947C010B
:100370000E94850108950E947F010E9485010895D1
:100380000E9482010E94940108950E947C010E94B3
:10039000940108950E947F010E94940108950E9493
:1003A00082010E94A30108954F925F926F927F9203
:1003B0008F92AF92BF92CF92DF92EF92FF920F9304
:1003C0001F93CF93DF93CDB7DEB7182F2B01D42E19
:1003D000390183E190E00E947B04FC01D2014C9141
:1003E00081E090E09C010D2C02C0220F331F0A9483
:1003F000E2F7242B2C93D3014C919C01002E02C0D8
:10040000220F331F0A94E2F724232C93D7012C9157
:100410000C2C02C0880F991F0A94E2F78095822362
:100420008C93A0E8B0E08C911C9216835086478292
:10043000D186738662860487F686E586C786B18A8A
:10044000A08A828A158214821082118212821382FB
:10045000CF01DF91CF911F910F91FF90EF90DF902F
:10046000CF90BF90AF908F907F906F905F904F90A4
:100470000895DC011A96ED91FC911B97408121E0D3
:1004800030E0C9011C960C9002C0880F991F0A9495
:10049000E2F7842B80830895DC011A96ED91FC919C
:1004A0001B97408121E030E0B9011C960C9002C0FE
:1004B000660F771F0A94E2F7CB018095842380832F
:1004C0000895CF93DF93EC010E944C028AE08A9555
:1004D000F1F700C0CE010E94390285E38A95F1F759
:1004E0000000CE010E944C02E889F98921E030E049
:1004F0000A8802C0220F331F0A94E2F7808190E03D
:1005000082239323892BD1F31092850010928400CB
:10051000E1E8F0E0808183608083E889F98921E067
:1005200030E00A8802C0220F331F0A94E2F780816C
:1005300090E082239323892BD1F7809184009091BE
:1005400085009D838C83E1E8F0E08081887F808353
:10055000DF91CF9108950F931F93CF93DF93EC0119
:100560000E9461026C817D8180E090E00E945803CE
:1005700022EB3DE94FE25FE30E94BE030E942903A4
:100580008B01072E000C220B330B088319832A835F
:100590003B83CB01DF91CF911F910F910895CF93B2
:1005A000DF93D62FC42FA0E0B0E0880F991FAA1FB9
:1005B000BB1F880F991FAA1FBB1F9C01AD01220FF3
:1005C000331F441F551F220F331F441F551F60E068
:1005D00074E284EF90E00E9453042150310930937B
:1005E000C5002093C400E2ECF0E080818660808347
:1005F000DD2329F0E1ECF0E0808180618083CC2371
:1006000029F0E1ECF0E0808188608083DF91CF9178
:100610000895E0ECF0E0908195FFFDCF8093C60057
:100620000895CF93DF93EC018881882331F02196E0
:100630000E94090389918111FBCFDF91CF91089529
:100640008091C000881F8827881F08958091C60068
:1006500008950E949D0388F09F5798F0B92F99271D
:10066000B751B0F0E1F0660F771F881F991F1AF09D
:10067000BA95C9F714C0B13091F00E94B703B1E048
:1006800008950C94B703672F782F8827B85F39F047
:10069000B93FCCF3869577956795B395D9F73EF436
:1006A00090958095709561957F4F8F4F9F4F0895DE
:1006B000E89409C097FB3EF49095809570956195FC
:1006C0007F4F8F4F9F4F9923A9F0F92F96E9BB27B2
:1006D0009395F695879577956795B795F111F8CF2E
:1006E000FAF4BB0F11F460FF1BC06F5F7F4F8F4F99
:1006F0009F4F16C0882311F096E911C0772321F08F
:100700009EE8872F762F05C0662371F096E8862F26
:1007100070E060E02AF09A95660F771F881FDAF77D
:10072000880F9695879597F9089557FD9058440F2F
:10073000551F59F05F3F71F04795880F97FB991F40
:1007400061F09F3F79F087950895121613061406FD
:10075000551FF2CF4695F1DF08C01616170618068A
:10076000991FF1CF86957105610508940895E89465
:10077000BB2766277727CB0197F908950E94D103FD
:100780000C9442040E94340438F00E943B0420F090
:10079000952311F00C942B040C94310411240C9427
:1007A000B8030E94950370F3959FC1F3950F50E035
:1007B000551F629FF001729FBB27F00DB11D639F13
:1007C000AA27F00DB11DAA1F649F6627B00DA11DB9
:1007D000661F829F2227B00DA11D621F739FB00D5F
:1007E000A11D621F839FA00D611D221F749F3327CF
:1007F000A00D611D231F849F600D211D822F762F68
:100800006A2F11249F5750409AF0F1F088234AF044
:10081000EE0FFF1FBB1F661F771F881F91505040B0
:10082000A9F79E3F510580F00C942B040C94B8035B
:100830005F3FE4F3983ED4F3869577956795B79537
:10084000F795E7959F5FC1F7FE2B880F911D969551
:10085000879597F9089597F99F6780E870E060E0C1
:1008600008959FEF80EC089500240A941616170649
:1008700018060906089500240A9412161306140691
:1008800005060895092E0394000C11F4882352F0F4
:10089000BB0F40F4BF2B11F460FF04C06F5F7F4FAC
:1008A0008F4F9F4F0895A1E21A2EAA1BBB1BFD017B
:1008B0000DC0AA1FBB1FEE1FFF1FA217B307E4073F
:1008C000F50720F0A21BB30BE40BF50B661F771F97
:1008D000881F991F1A9469F7609570958095909577
:1008E0009B01AC01BD01CF010895EE0FFF1F0590E4
:1008F000F491E02D09940F931F93CF93DF938230EF
:10090000910510F482E090E0E0911601F09117015A
:1009100020E030E0A0E0B0E0309719F14081518153
:100920000281138148175907C8F08417950769F4A5
:10093000109731F012960C93129713961C9327C0C0
:10094000009316011093170122C02115310519F0EB
:100950004217530718F49A01BD01EF01DF01F801B6
:10096000DBCF21153105F9F0281B390B2430310577
:1009700080F48A819B816115710521F0FB019383CD
:10098000828304C09093170180931601FE01329672
:1009900044C0FE01E20FF31F81939193225031096D
:1009A000398328833AC02091140130911501232BFB
:1009B00041F42091020130910301309315012093FD
:1009C000140120910001309101012115310541F4FC
:1009D0002DB73EB74091040150910501241B350B02
:1009E000E0911401F0911501E217F307A0F42E1B1A
:1009F0003F0B2817390778F0AC014E5F5F4F241783
:100A0000350748F04E0F5F1F5093150140931401B6
:100A10008193919302C0E0E0F0E0CF01DF91CF91AC
:100A20001F910F910895CF93DF93009709F481C030
:100A3000FC01329713821282A0911601B091170126
:100A4000109781F420813181820F931F209114012E
:100A5000309115012817390751F5F0931501E093EE
:100A6000140167C0ED0120E030E0CE17DF0740F44D
:100A70004A815B819E0141155105F1F0EA01F5CFF4
:100A8000D383C28340815181840F951FC817D90732
:100A900059F488819981840F951F029691838083F0
:100AA0008A819B81938382832115310529F4F093F8
:100AB0001701E09316013DC0E901FB83EA834991E8
:100AC0005991C40FD51FEC17FD0761F48081918106
:100AD000840F951F0296E90199838883828193810F
:100AE0009B838A83E0E0F0E012968D919C911397AE
:100AF000009719F0FD01DC01F7CF8D919C911197C2
:100B00009D012E5F3F4F820F931F20911401309162
:100B100015012817390769F4309729F41092170145
:100B20001092160102C013821282B0931501A09395
:100B30001401DF91CF910895AEE0B0E0E2EAF5E074
:100B40000C945D080D891E8986E08C831A830983C5
:100B50008FEF9FE79E838D83AE01475E5F4F6F8966
:100B6000788DCE0101960E94BE05EF81F885E00FD9
:100B7000F11F10822E96E4E00C947908ABE0B0E00F
:100B8000E4ECF5E00C944F086C017B018A01FC0158
:100B900017821682838181FFCCC1CE0101963C0170
:100BA000F6019381F70193FD859193FF81917F0178
:100BB000882309F4BAC1853239F493FD859193FFF6
:100BC00081917F01853229F4B60190E00E94B5073A
:100BD000E7CF912C212C312CFFE1F315D8F08B328B
:100BE00079F038F4803279F08332A1F4232D20613A
:100BF0001DC08D3261F0803369F4232D216016C051
:100C0000832D8260382EE32DE4603E2E2AC0F32D22
:100C1000F8601DC037FC2DC020ED280F2A3040F0B1
:100C20008E32B9F436FC81C1232D2064322E19C0D6
:100C300036FE06C08AE0989E200D1124922E11C027
:100C4000EAE02E9E200D1124222EF32DF0623F2E7D
:100C500008C08C3621F4832D8068382E02C0883677
:100C600041F4F70193FD859193FF81917F018111FB
:100C7000B3CF982F9F7D9554933028F40C5F1F4F6E
:100C80009FE399830DC0833631F0833771F083354C
:100C900009F059C021C0F801808189830E5F1F4F80
:100CA00088248394912C530113C02801F2E04F0E45
:100CB000511CF801A080B18036FE03C0692D70E0A0
:100CC00002C06FEF7FEFC5010E94AA074C018201AD
:100CD000F32DFF773F2E16C0280122E0420E511C53
:100CE000F801A080B18036FE03C0692D70E002C01B
:100CF0006FEF7FEFC5010E949F074C01F32DF06855
:100D00003F2E820133FC1BC0822D90E0881699068D
:100D1000B0F4B60180E290E00E94B5072A94F4CFC7
:100D2000F50137FC859137FE81915F01B60190E0B6
:100D30000E94B50721102A9421E0821A910881149B
:100D4000910471F7E8C0843611F0893641F5F80155
:100D500037FE07C060817181828193810C5F1F4FD4
:100D600008C060817181072E000C880B990B0E5F03
:100D70001F4FF32DFF763F2E97FF09C0909580956A
:100D8000709561957F4F8F4F9F4FF0683F2E2AE0FF
:100D900030E0A3010E94F107882E861845C08537F0
:100DA00031F4232D2F7EB22E2AE030E025C0932D82
:100DB000997FB92E8F36C1F018F4883579F0B5C017
:100DC000803719F0883721F0B0C0E92FE061BE2EDE
:100DD000B4FE0DC0FB2DF460BF2E09C034FE0AC066
:100DE000292F2660B22E06C028E030E005C020E1A1
:100DF00030E002C020E132E0F801B7FE07C06081B8
:100E00007181828193810C5F1F4F06C06081718167
:100E100080E090E00E5F1F4FA3010E94F107882E33
:100E20008618FB2DFF773F2E36FE0DC0232D2E7F1B
:100E3000A22E891458F434FE0BC032FC09C0832D55
:100E40008E7EA82E05C0B82CA32C03C0B82C01C0E0
:100E5000B92CA4FE0FC0FE01E80DF11D8081803386
:100E600021F49A2D997EA92E09C0A2FE06C0B39442
:100E7000B39404C08A2D867809F0B394A3FC11C002
:100E8000A0FE06C0B21488F4280C922C9B180EC049
:100E9000B21460F4B60180E290E00E94B507B3940A
:100EA000F7CFB21418F42B1802C0982C212CA4FEF2
:100EB00010C0B60180E390E00E94B507A2FE17C003
:100EC000A1FC03C088E790E002C088E590E0B6018D
:100ED0000CC08A2D867859F0A1FE02C08BE201C0B9
:100EE00080E2A7FC8DE2B60190E00E94B50789146C
:100EF00038F4B60180E390E00E94B5079A94F7CFEA
:100F00008A94F301E80DF11D8081B60190E00E9402
:100F1000B5078110F5CF222009F442CEB60180E258
:100F200090E00E94B5072A94F6CFF601868197815A
:100F300002C08FEF9FEF2B96E2E10C946B08FC014F
:100F40000590615070400110D8F7809590958E0FF4
:100F50009F1F0895FC016150704001900110D8F767
:100F6000809590958E0F9F1F08950F931F93CF9399
:100F7000DF93FB01238121FD03C08FEF9FEF2CC086
:100F800022FF16C0468157812481358142175307BD
:100F900044F4A081B1819D012F5F3F4F31832083B5
:100FA0008C93268137812F5F3F4F3783268314C070
:100FB0008B01EC01FB010084F185E02D0995892B63
:100FC000E1F6D80116968D919C9117970196179688
:100FD0009C938E931697CE01DF91CF911F910F9125
:100FE0000895FA01AA27283051F1203181F1E894BF
:100FF0006F936E7F6E5F7F4F8F4F9F4FAF4FB1E00C
:101000003ED0B4E03CD0670F781F891F9A1FA11D06
:10101000680F791F8A1F911DA11D6A0F711D811D07
:10102000911DA11D20D009F468943F912AE0269FCC
:1010300011243019305D3193DEF6CF010895462F2B
:101040004770405D4193B3E00FD0C9F7F6CF462F0C
:101050004F70405D4A3318F0495D31FD4052419375
:1010600002D0A9F7EACFB4E0A69597958795779532
:101070006795BA95C9F700976105710508959B01B9
:10108000AC010A2E06945795479537952795BA9542
:10109000C9F7620F731F841F951FA01D08952F921B
:1010A0003F924F925F926F927F928F929F92AF92F8
:1010B000BF92CF92DF92EF92FF920F931F93CF9345
:1010C000DF93CDB7DEB7CA1BDB0B0FB6F894DEBFDC
:1010D0000FBECDBF09942A88398848885F846E8402
:1010E0007D848C849B84AA84B984C884DF80EE804C
:1010F000FD800C811B81AA81B981CE0FD11D0FB655
:10110000F894DEBF0FBECDBFED010895F894FFCF78
:10111000000018012000550044256C750A00542574
:04112000750A00004C
:00000001FF
