:100000000C946D000C948A000C948A000C948A0065
:100010000C948A000C948A000C948A000C948A0038
:100020000C948A000C948A000C948A000C948A0028
:100030000C948A000C948A000C948A000C948A0018
:100040000C948A000C948A000C948A000C948A0008
:100050000C948A000C948A000C948A000C948A00F8
:100060000C948A000C948A00D300DF00CD00E100DC
:10007000CF00DF00DF00D700DF00DF00D900DF00A6
:10008000DF00DF00CB00DF00D500DF00DF00DF0096
:10009000DF00DD00DF00D100DF00DF00DF00DF0078
:1000A000DF00DF00DF00DF00DF00DF00DF00DF0058
:1000B000DF00DF00DF00DF00DF00DF00DB009B018F
:1000C000A701B301BF01CB01D701E301FA02FF028F
:1000D00040039703EC032D04840411241FBECFEFCB
:1000E000D8E0DEBFCDBF11E0A0E0B1E0E2E3F7E190
:1000F00002C005900D92AE31B107D9F721E0AEE113
:10010000B1E001C01D92AE32B207E1F70E940001DA
:100110000C94970B0C9400000F931F93CF93DF93D5
:10012000CDB7DEB764970FB6F894DEBF0FBECDBF74
:100130005F934F933F932F939F938F937F936F93EF
:1001400088E091E09F938F938E010F5F1F4F1F9365
:100150000F930E94AD08C8010E9422060FB6F894C2
:10016000DEBF0FBECDBF64960FB6F894DEBF0FBEE4
:10017000CDBFDF91CF911F910F9108950E94370657
:1001800090E0FC01E354F109EB32F105C0F4EC5CC2
:10019000FF4F0C94860781E0089582E0089583E084
:1001A000089584E0089585E0089586E0089587E045
:1001B000089588E0089589E008958AE008958BE025
:1001C000089580E00895789484B58B6284BD80EFB3
:1001D00087BD0895389A399A3A9A559A4098419825
:1001E00042985D980E94E30085B515BC0895892B5F
:1001F00019F485B515BC089585B5846085BD08954D
:1002000041E061E080E895E20E94E0050E9444013F
:100210000E94EA000E94EA0181E090E00E94F7005B
:100220002FEF82E597E0215080409040E1F700C039
:10023000000080E090E00E94F70062E370E088EC4C
:1002400090E00E946E020E943106882341F00E94D5
:10025000BE0080932001883010F40E9491012FEF9E
:1002600089EF90E0215080409040E1F700C000000D
:10027000E4CFE0EBF0E0808183688083E1EBF0E0A5
:100280008081846080830895549A3D9A239A5C9873
:1002900045982B98579A209A5F9828980E94390180
:1002A0001092210108955F9A289808955F98289ADE
:1002B00008955F9828980895459A5C9820910601C2
:1002C000309107014EE6429FC001439F900D1124DB
:1002D0008093B300089545985C9A2091060130916F
:1002E00007014EE6429FC001439F900D1124809369
:1002F000B30008951092B30045985C98089581E08A
:1003000080931F010E947A01089581E080931E016D
:100310000E947A01089510921F01089510921E0103
:10032000089590E08730910508F053C0FC01E15A30
:10033000FF4F0C94860780911F0181114AC081E014
:10034000809321010E9459010E945C0108958091CF
:100350001F0181113EC082E0809321010E94530160
:100360000E945C01089580911F01811132C083E0D9
:10037000809321010E9456010E945C0108958091A2
:100380001E01811126C084E0809321010E94590141
:100390000E946B01089580911E0181111AC085E0B1
:1003A000809321010E9453010E946B010895809166
:1003B0001E0181110EC086E0809321010E9456012A
:1003C0000E946B010895109221010E9459010E9420
:1003D0007A0108958F92AF92BF92CF92EF92FF92DF
:1003E0000F936894882481F80F2EF3E2AF2EB12C7E
:1003F000F02D6894CC24C1F80F2EF4E2EF2EF12CEE
:10040000F02D01E025E230E041E064E270E084E0BC
:100410000E94E50490932701809326016894882424
:1004200082F80F2EF6E2AF2EB12CF02D6894CC247A
:10043000C2F80F2EF7E2EF2EF12CF02D03E028E2A8
:1004400030E043E067E270E084E00E94E5049093CE
:100450002901809328010F2EF6E08F2EF02D0F2E0C
:10046000F9E2AF2EB12CF02D0F2EF6E0CF2EF02DAD
:100470000F2EFAE2EF2EF12CF02D2BE230E043E0CC
:100480006AE270E084E00E94E50490932501809385
:1004900024016894882482F80F2EF3E2AF2EB12C49
:1004A000F02D6894CC24C2F80F2EF4E2EF2EF12C3C
:1004B000F02D05E025E230E045E064E270E084E004
:1004C0000E94E50490932301809322010F91FF90F5
:1004D000EF90CF90BF90AF908F9008958F929F92A2
:1004E000AF92BF92CF92DF92EF92FF920F931F9342
:1004F000CF93DF938C01EB0180912101813008F4CF
:100500006CC0843018F08730A8F167C08091220158
:10051000909123010E94BC058091240190912501B6
:100520000E94BC05E0912401F09125016081718158
:10053000828193810F2EFAE0CF2ED12CE12CF12C69
:10054000F02DA70196010E94640749015A01E0912C
:100550002201F09123016081718182819381A70141
:1005600096010E946407CA01B901A50194010E9485
:100570008C0033C080912801909129010E94BC0514
:1005800080912601909127010E94BC05E0912601EF
:10059000F091270160817181828193810F2EFAE0B1
:1005A000CF2ED12CE12CF12CF02DA70196010E9429
:1005B000640749015A01E0912801F0912901608105
:1005C000718182819381A70196010E946407CA010B
:1005D000B901A50194010E948C00E09121018E2FA8
:1005E00090E08730910508F0E3C1FC01EA59FF4F24
:1005F0000C94860780E090E00E94F700D9C1E0915A
:100600002201F09123014081518162817381CE01E9
:10061000DD0FAA0BBB0B84179507A607B70768F475
:10062000E0912401F0912501C080D180E280F38027
:100630008C159D05AE05BF0538F00E947F0181E055
:1006400090E00E94F700B4C1012E000C220B330B86
:10065000041715072607370728F40C151D052E0566
:100660003F0538F00E948B0181E090E00E94F70086
:100670009FC10E948B0180E090E00E94F70098C12A
:10068000E0912201F0912301C080D180E280F380CB
:10069000CE010D2E000CAA0BBB0B8C159D05AE05D3
:1006A000BF05B8F4E0912401F0912501408151810A
:1006B00062817381CE01DD230CF4019695958795B7
:1006C000092E000CAA0BBB0B84179507A607B707CA
:1006D00038F00E947F0181E090E00E94F70068C13D
:1006E000C801012E000CAA0BBB0B8C159D05AE0595
:1006F000BF0578F4C80199230CF401969595879568
:10070000092E000CAA0BBB0B84179507A607B70789
:1007100038F00E948B0181E090E00E94F70048C110
:100720000E948B0180E090E00E94F70041C1E091BF
:100730002201F09123014081518162817381CE01B8
:10074000DD230CF4019695958795092E000CAA0BD4
:10075000BB0B84179507A607B70788F4E09124011F
:10076000F0912501C080D180E280F380CE01DD0FC1
:10077000AA0BBB0B8C159D05AE05BF0538F00E947A
:100780007F0181E090E00E94F70012C1C8011123AF
:100790000CF4019695958795092E000CAA0BBB0BBE
:1007A00084179507A607B70748F4012E000C220B03
:1007B000330B0C151D052E053F0538F00E948B01EB
:1007C00081E090E00E94F700F3C00E948B0180E07E
:1007D00090E00E94F700ECC0E0912801F09129011F
:1007E0004081518162817381CE01DD0FAA0BBB0B69
:1007F00084179507A607B70768F4E0912601F091E2
:100800002701C080D180E280F3808C159D05AE0564
:10081000BF0538F00E94850181E090E00E94F7005A
:10082000C7C0012E000C220B330B04171507260737
:10083000370728F40C151D052E053F0538F00E94DA
:100840008E0181E090E00E94F700B2C00E948E010C
:1008500080E090E00E94F700ABC0E0912801F091A9
:100860002901C080D180E280F380CE010D2E000CE2
:10087000AA0BBB0B8C159D05AE05BF05B8F4E09126
:100880002601F09127014081518162817381CE015F
:10089000DD230CF4019695958795092E000CAA0B83
:1008A000BB0B84179507A607B70738F00E94850190
:1008B00081E090E00E94F7007BC0C801012E000C8F
:1008C000AA0BBB0B8C159D05AE05BF0578F4C801BE
:1008D00099230CF4019695958795092E000CAA0B87
:1008E000BB0B84179507A607B70738F00E948E0147
:1008F00081E090E00E94F7005BC00E948E0180E0E2
:1009000090E00E94F70054C0E0912801F091290185
:100910004081518162817381CE01DD230CF4019607
:1009200095958795092E000CAA0BBB0B841795078C
:10093000A607B70788F4E0912601F0912701C0804F
:10094000D180E280F380CE01DD0FAA0BBB0B8C15AA
:100950009D05AE05BF0538F00E94850181E090E05D
:100960000E94F70025C0C80111230CF4019695954B
:100970008795092E000CAA0BBB0B84179507A607B9
:10098000B70748F4012E000C220B330B0C151D0584
:100990002E053F0538F00E948E0181E090E00E9414
:1009A000F70006C00E948E0180E090E00E94F700F0
:1009B000DF91CF911F910F91FF90EF90DF90CF903B
:1009C000BF90AF909F908F9008954F925F926F92DB
:1009D0007F928F92AF92BF92CF92DF92EF92FF926F
:1009E0000F931F93CF93DF93CDB7DEB7182F2B0153
:1009F000D42E390183E190E00E948C07FC01D201E2
:100A00004C9181E090E09C010D2C02C0220F331F1D
:100A10000A94E2F7242B2C93D3014C919C01002ED5
:100A200002C0220F331F0A94E2F724232C93D7012C
:100A30002C910C2C02C0880F991F0A94E2F7809524
:100A400082238C93A0E8B0E08C911C921683508690
:100A50004782D186738662860487F686E586C786D6
:100A6000B18AA08A828A158214821082118212822F
:100A70001382CF01DF91CF911F910F91FF90EF90E3
:100A8000DF90CF90BF90AF908F907F906F905F90EE
:100A90004F900895DC011A96ED91FC911B974081CF
:100AA00021E030E0C9011C960C9002C0880F991F0C
:100AB0000A94E2F7842B80830895DC011A96ED9165
:100AC000FC911B97408121E030E0B9011C960C900D
:100AD00002C0660F771F0A94E2F7CB01809584234A
:100AE00080830895CF93DF93EC010E945D058AE037
:100AF0008A95F1F700C0CE010E944A0585E38A95E8
:100B0000F1F70000CE010E945D05E889F98921E036
:100B100030E00A8802C0220F331F0A94E2F7808176
:100B200090E082239323892BD1F3109285001092B9
:100B30008400E1E8F0E0808183608083E889F989BE
:100B400021E030E00A8802C0220F331F0A94E2F746
:100B5000808190E082239323892BD1F780918400B8
:100B6000909185009D838C83E1E8F0E08081887F0F
:100B70008083DF91CF9108950F931F93CF93DF93DD
:100B8000EC010E9472056C817D8180E090E00E9402
:100B9000690622EB3DE94FE25FE30E94CF060E9427
:100BA0003A068B01072E000C220B330B08831983A6
:100BB0002A833B83CB01DF91CF911F910F91089541
:100BC000CF93DF93D62FC42FA0E0B0E0880F991FFA
:100BD000AA1FBB1F880F991FAA1FBB1F9C01AD0135
:100BE000220F331F441F551F220F331F441F551F51
:100BF00060E074E284EF90E00E94640721503109C4
:100C00003093C5002093C400E2ECF0E08081866060
:100C10008083DD2329F0E1ECF0E080818061808336
:100C2000CC2329F0E1ECF0E0808188608083DF91C3
:100C3000CF910895E0ECF0E0908195FFFDCF809397
:100C4000C6000895CF93DF93EC018881882331F0AB
:100C500021960E941A0689918111FBCFDF91CF91D5
:100C600008958091C000881F8827881F089580916B
:100C7000C60008950E94AE0688F09F5798F0B92FDD
:100C80009927B751B0F0E1F0660F771F881F991FC1
:100C90001AF0BA95C9F714C0B13091F00E94C80695
:100CA000B1E008950C94C806672F782F8827B85FA5
:100CB00039F0B93FCCF3869577956795B395D9F719
:100CC0003EF490958095709561957F4F8F4F9F4F23
:100CD0000895E89409C097FB3EF49095809570952F
:100CE00061957F4F8F4F9F4F9923A9F0F92F96E978
:100CF000BB279395F695879577956795B795F111ED
:100D0000F8CFFAF4BB0F11F460FF1BC06F5F7F4F89
:100D10008F4F9F4F16C0882311F096E911C077239B
:100D200021F09EE8872F762F05C0662371F096E8A4
:100D3000862F70E060E02AF09A95660F771F881F73
:100D4000DAF7880F9695879597F9089557FD90588B
:100D5000440F551F59F05F3F71F04795880F97FB7F
:100D6000991F61F09F3F79F0879508951216130639
:100D70001406551FF2CF4695F1DF08C01616170668
:100D80001806991FF1CF869571056105089408959D
:100D9000E894BB2766277727CB0197F908950E942F
:100DA000E2060C9453070E94450738F00E944C0756
:100DB00020F0952311F00C943C070C944207112469
:100DC0000C94C9060E94A60670F3959FC1F3950F77
:100DD00050E0551F629FF001729FBB27F00DB11DBF
:100DE000639FAA27F00DB11DAA1F649F6627B00D4F
:100DF000A11D661F829F2227B00DA11D621F739F38
:100E0000B00DA11D621F839FA00D611D221F749F45
:100E10003327A00D611D231F849F600D211D822F8C
:100E2000762F6A2F11249F5750409AF0F1F08823B3
:100E30004AF0EE0FFF1FBB1F661F771F881F9150E0
:100E40005040A9F79E3F510580F00C943C070C944C
:100E5000C9065F3FE4F3983ED4F38695779567958E
:100E6000B795F795E7959F5FC1F7FE2B880F911D0A
:100E70009695879597F9089597F99F6780E870E0B0
:100E800060E008959FEF80EC089500240A94161600
:100E9000170618060906089500240A941216130668
:100EA000140605060895092E0394000C11F48823F6
:100EB00052F0BB0F40F4BF2B11F460FF04C06F5F12
:100EC0007F4F8F4F9F4F0895A1E21A2EAA1BBB1B85
:100ED000FD010DC0AA1FBB1FEE1FFF1FA217B30706
:100EE000E407F50720F0A21BB30BE40BF50B661F1C
:100EF000771F881F991F1A9469F7609570958095E0
:100F000090959B01AC01BD01CF010895EE0FFF1F2D
:100F10000590F491E02D09940F931F93CF93DF93E5
:100F20008230910510F482E090E0E0912C01F09184
:100F30002D0120E030E0A0E0B0E0309719F14081D1
:100F400051810281138148175907C8F0841795070A
:100F500069F4109731F012960C93129713961C9324
:100F600027C000932C0110932D0122C021153105BB
:100F700019F04217530718F49A01BD01EF01DF0180
:100F8000F801DBCF21153105F9F0281B390B24308E
:100F9000310580F48A819B816115710521F0FB0187
:100FA0009383828304C090932D0180932C01FE01D2
:100FB000329644C0FE01E20FF31F819391932250B9
:100FC0003109398328833AC020912A0130912B01BD
:100FD000232B41F4209102013091030130932B0126
:100FE00020932A0120910001309101012115310542
:100FF00041F42DB73EB74091040150910501241BE7
:10100000350BE0912A01F0912B01E217F307A0F4D0
:101010002E1B3F0B2817390778F0AC014E5F5F4F4E
:101020002417350748F04E0F5F1F50932B01409354
:101030002A018193919302C0E0E0F0E0CF01DF91BB
:10104000CF911F910F910895CF93DF93009709F4EB
:1010500081C0FC01329713821282A0912C01B091C1
:101060002D01109781F420813181820F931F2091EF
:101070002A0130912B012817390751F5F0932B01E4
:10108000E0932A0167C0ED0120E030E0CE17DF07D2
:1010900040F44A815B819E0141155105F1F0EA015E
:1010A000F5CFD383C28340815181840F951FC81728
:1010B000D90759F488819981840F951F02969183ED
:1010C00080838A819B81938382832115310529F452
:1010D000F0932D01E0932C013DC0E901FB83EA83ED
:1010E00049915991C40FD51FEC17FD0761F4808118
:1010F0009181840F951F0296E901998388838281EB
:1011000093819B838A83E0E0F0E012968D919C911D
:101110001397009719F0FD01DC01F7CF8D919C9199
:1011200011979D012E5F3F4F820F931F20912A013F
:1011300030912B012817390769F4309729F4109260
:101140002D0110922C0102C013821282B0932B0148
:10115000A0932A01DF91CF910895AEE0B0E0E3EBD8
:10116000F8E00C946E0B0D891E8986E08C831A833F
:1011700009838FEF9FE79E838D83AE01475E5F4FAC
:101180006F89788DCE0101960E94CF08EF81F88596
:10119000E00FF11F10822E96E4E00C948A0BABE076
:1011A000B0E0E5EDF8E00C94600B6C017B018A0186
:1011B000FC0117821682838181FFCCC1CE0101968A
:1011C0003C01F6019381F70193FD859193FF819195
:1011D0007F01882309F4BAC1853239F493FD8591E2
:1011E00093FF81917F01853229F4B60190E00E943E
:1011F000C60AE7CF912C212C312CFFE1F315D8F052
:101200008B3279F038F4803279F08332A1F4232DD7
:1012100020611DC08D3261F0803369F4232D21607F
:1012200016C0832D8260382EE32DE4603E2E2AC046
:10123000F32DF8601DC037FC2DC020ED280F2A309B
:1012400040F08E32B9F436FC81C1232D2064322E59
:1012500019C036FE06C08AE0989E200D1124922EF9
:1012600011C0EAE02E9E200D1124222EF32DF062F3
:101270003F2E08C08C3621F4832D8068382E02C0A2
:10128000883641F4F70193FD859193FF81917F01A9
:101290008111B3CF982F9F7D9554933028F40C5F24
:1012A0001F4F9FE399830DC0833631F0833771F070
:1012B000833509F059C021C0F801808189830E5F10
:1012C0001F4F88248394912C530113C02801F2E00E
:1012D0004F0E511CF801A080B18036FE03C0692D6D
:1012E00070E002C06FEF7FEFC5010E94BB0A4C01A6
:1012F0008201F32DFF773F2E16C0280122E0420E17
:10130000511CF801A080B18036FE03C0692D70E049
:1013100002C06FEF7FEFC5010E94B00A4C01F32DB0
:10132000F0683F2E820133FC1BC0822D90E08816AE
:101330009906B0F4B60180E290E00E94C60A2A94B1
:10134000F4CFF50137FC859137FE81915F01B6013D
:1013500090E00E94C60A21102A9421E0821A910886
:101360008114910471F7E8C0843611F0893641F593
:10137000F80137FE07C060817181828193810C5F23
:101380001F4F08C060817181072E000C880B990BDC
:101390000E5F1F4FF32DFF763F2E97FF09C09095EC
:1013A0008095709561957F4F8F4F9F4FF0683F2ECE
:1013B0002AE030E0A3010E94020B882E861845C067
:1013C000853731F4232D2F7EB22E2AE030E025C060
:1013D000932D997FB92E8F36C1F018F4883579F0A6
:1013E000B5C0803719F0883721F0B0C0E92FE0612F
:1013F000BE2EB4FE0DC0FB2DF460BF2E09C034FE1E
:101400000AC0292F2660B22E06C028E030E005C0B1
:1014100020E130E002C020E132E0F801B7FE07C071
:1014200060817181828193810C5F1F4F06C0608152
:10143000718180E090E00E5F1F4FA3010E94020BBC
:10144000882E8618FB2DFF773F2E36FE0DC0232DEC
:101450002E7FA22E891458F434FE0BC032FC09C032
:10146000832D8E7EA82E05C0B82CA32C03C0B82CCB
:1014700001C0B92CA4FE0FC0FE01E80DF11D808152
:10148000803321F49A2D997EA92E09C0A2FE06C0B0
:10149000B394B39404C08A2D867809F0B394A3FC66
:1014A00011C0A0FE06C0B21488F4280C922C9B1820
:1014B0000EC0B21460F4B60180E290E00E94C60A49
:1014C000B394F7CFB21418F42B1802C0982C212C27
:1014D000A4FE10C0B60180E390E00E94C60AA2FEFE
:1014E00017C0A1FC03C088E790E002C088E590E047
:1014F000B6010CC08A2D867859F0A1FE02C08BE29D
:1015000001C080E2A7FC8DE2B60190E00E94C60A0D
:10151000891438F4B60180E390E00E94C60A9A94D8
:10152000F7CF8A94F301E80DF11D8081B60190E0B8
:101530000E94C60A8110F5CF222009F442CEB601DE
:1015400080E290E00E94C60A2A94F6CFF6018681D6
:10155000978102C08FEF9FEF2B96E2E10C947C0BFA
:10156000FC010590615070400110D8F7809590956E
:101570008E0F9F1F0895FC01615070400190011073
:10158000D8F7809590958E0F9F1F08950F931F9306
:10159000CF93DF93FB01238121FD03C08FEF9FEFEA
:1015A0002CC022FF16C04681578124813581421705
:1015B000530744F4A081B1819D012F5F3F4F3183D8
:1015C00020838C93268137812F5F3F4F378326837B
:1015D00014C08B01EC01FB010084F185E02D09951D
:1015E000892BE1F6D80116968D919C91179701965B
:1015F00017969C938E931697CE01DF91CF911F91F2
:101600000F910895FA01AA27283051F1203181F174
:10161000E8946F936E7F6E5F7F4F8F4F9F4FAF4FFA
:10162000B1E03ED0B4E03CD0670F781F891F9A1F0D
:10163000A11D680F791F8A1F911DA11D6A0F711DC1
:10164000811D911DA11D20D009F468943F912AE0CD
:10165000269F11243019305D3193DEF6CF010895B5
:10166000462F4770405D4193B3E00FD0C9F7F6CFE6
:10167000462F4F70405D4A3318F0495D31FD4052AE
:10168000419302D0A9F7EACFB4E0A6959795879544
:1016900077956795BA95C9F7009761057105089523
:1016A0009B01AC010A2E06945795479537952795CF
:1016B000BA95C9F7620F731F841F951FA01D089567
:1016C0002F923F924F925F926F927F928F929F9252
:1016D000AF92BF92CF92DF92EF92FF920F931F9340
:1016E000CF93DF93CDB7DEB7CA1BDB0B0FB6F894F1
:1016F000DEBF0FBECDBF09942A88398848885F8431
:101700006E847D848C849B84AA84B984C884DF80A1
:10171000EE80FD800C811B81AA81B981CE0FD11D85
:101720000FB6F894DEBF0FBECDBFED010895F8945B
:02173000FFCFE9
:1017320000002E0120005500444C3A256C752063B0
:0E1742006D20523A256C750A005425750A0078
:00000001FF
